{
  "contractName": "ConvertLib",
  "abi": [
    {
      "constant": false,
      "inputs": [
        {
          "name": "amount",
          "type": "int256"
        },
        {
          "name": "conversionRate",
          "type": "int256"
        }
      ],
      "name": "convert",
      "outputs": [
        {
          "name": "convertedAmount",
          "type": "int256"
        }
      ],
      "payable": false,
      "stateMutability": "nonpayable",
      "type": "function"
    }
  ],
  "bytecode": "0x6060604052341561000f57600080fd5b60b08061001d6000396000f300606060405260043610603f576000357c0100000000000000000000000000000000000000000000000000000000900463ffffffff1680632d2c1d80146044575b600080fd5b606160048080359060200190919080359060200190919050506077565b6040518082815260200191505060405180910390f35b60008183029050929150505600a165627a7a7230582078ce5a5c11a0b218405181cc2e1d67ffd89c4e4164310806cf93c2287165f3e70029",
  "source": "pragma solidity ^0.4.11;\n\nlibrary ConvertLib{\n  function convert(int amount, int conversionRate) returns (int convertedAmount)\n  {\n    return amount * conversionRate;\n  }\n}\n",
  "sourcePath": "/Users/sunjinlee/workspace/eth/my-little-ponies/contracts/ConvertLib.sol",
  "compiler": {
    "name": "solc",
    "version": "0.4.18+commit.9cf6e910.Emscripten.clang"
  },
  "schemaVersion": "1.0.1",
  "updatedAt": "2017-11-07T08:26:24.071Z"
}