{
  "contractName": "MetaCoin",
  "abi": [
    {
      "constant": true,
      "inputs": [
        {
          "name": "",
          "type": "uint256"
        }
      ],
      "name": "posts",
      "outputs": [
        {
          "name": "id",
          "type": "uint256"
        },
        {
          "name": "title",
          "type": "string"
        },
        {
          "name": "content",
          "type": "string"
        },
        {
          "name": "timestamp",
          "type": "uint256"
        },
        {
          "name": "createdBy",
          "type": "address"
        }
      ],
      "payable": false,
      "stateMutability": "view",
      "type": "function"
    },
    {
      "constant": true,
      "inputs": [
        {
          "name": "",
          "type": "uint256"
        }
      ],
      "name": "answers",
      "outputs": [
        {
          "name": "postId",
          "type": "uint256"
        },
        {
          "name": "id",
          "type": "uint256"
        },
        {
          "name": "content",
          "type": "string"
        },
        {
          "name": "createdBy",
          "type": "address"
        },
        {
          "name": "timestamp",
          "type": "uint256"
        }
      ],
      "payable": false,
      "stateMutability": "view",
      "type": "function"
    },
    {
      "constant": true,
      "inputs": [],
      "name": "getNumberOfPosts",
      "outputs": [
        {
          "name": "num",
          "type": "uint256"
        }
      ],
      "payable": false,
      "stateMutability": "view",
      "type": "function"
    },
    {
      "constant": true,
      "inputs": [
        {
          "name": "postID",
          "type": "uint256"
        }
      ],
      "name": "getPost",
      "outputs": [
        {
          "name": "content",
          "type": "string"
        },
        {
          "name": "timestamp",
          "type": "uint256"
        }
      ],
      "payable": false,
      "stateMutability": "view",
      "type": "function"
    },
    {
      "constant": true,
      "inputs": [
        {
          "name": "addr",
          "type": "address"
        },
        {
          "name": "content",
          "type": "string"
        }
      ],
      "name": "getBalanceInEth",
      "outputs": [
        {
          "name": "",
          "type": "int256"
        }
      ],
      "payable": false,
      "stateMutability": "view",
      "type": "function"
    },
    {
      "constant": false,
      "inputs": [
        {
          "name": "title",
          "type": "string"
        },
        {
          "name": "content",
          "type": "string"
        }
      ],
      "name": "postQuestion",
      "outputs": [
        {
          "name": "",
          "type": "bool"
        }
      ],
      "payable": false,
      "stateMutability": "nonpayable",
      "type": "function"
    },
    {
      "constant": false,
      "inputs": [
        {
          "name": "receiver",
          "type": "address"
        },
        {
          "name": "amount",
          "type": "int256"
        }
      ],
      "name": "sendCoin",
      "outputs": [
        {
          "name": "",
          "type": "bool"
        }
      ],
      "payable": false,
      "stateMutability": "nonpayable",
      "type": "function"
    },
    {
      "constant": false,
      "inputs": [
        {
          "name": "postId",
          "type": "uint256"
        },
        {
          "name": "answer",
          "type": "string"
        }
      ],
      "name": "postAnswer",
      "outputs": [
        {
          "name": "",
          "type": "bool"
        }
      ],
      "payable": false,
      "stateMutability": "nonpayable",
      "type": "function"
    },
    {
      "constant": true,
      "inputs": [],
      "name": "getLatestPost",
      "outputs": [
        {
          "name": "content",
          "type": "string"
        },
        {
          "name": "timestamp",
          "type": "uint256"
        },
        {
          "name": "numberOfPosts",
          "type": "uint256"
        }
      ],
      "payable": false,
      "stateMutability": "view",
      "type": "function"
    },
    {
      "constant": true,
      "inputs": [
        {
          "name": "addr",
          "type": "address"
        }
      ],
      "name": "getBalance",
      "outputs": [
        {
          "name": "",
          "type": "int256"
        }
      ],
      "payable": false,
      "stateMutability": "view",
      "type": "function"
    },
    {
      "inputs": [],
      "payable": false,
      "stateMutability": "nonpayable",
      "type": "constructor"
    },
    {
      "anonymous": false,
      "inputs": [
        {
          "indexed": true,
          "name": "_from",
          "type": "address"
        },
        {
          "indexed": true,
          "name": "_to",
          "type": "address"
        },
        {
          "indexed": false,
          "name": "_value",
          "type": "int256"
        }
      ],
      "name": "Transfer",
      "type": "event"
    }
  ],
  "bytecode": "0x6060604052341561000f57600080fd5b600080819055506000600181905550610e138061002d6000396000f3006060604052600436106100a4576000357c0100000000000000000000000000000000000000000000000000000000900463ffffffff1680630b1e7f83146100a957806317599cc51461022c57806337bbcaa01461032d57806340731c24146103565780637bd703e8146103f95780637f34457c14610446578063bc9e7d7f146104fe578063c921d66c14610558578063e04e6d54146105d6578063f8b2cb4f14610672575b600080fd5b34156100b457600080fd5b6100ca60048080359060200190919050506106bf565b6040518086815260200180602001806020018581526020018473ffffffffffffffffffffffffffffffffffffffff1673ffffffffffffffffffffffffffffffffffffffff1681526020018381038352878181546001816001161561010002031660029004815260200191508054600181600116156101000203166002900480156101955780601f1061016a57610100808354040283529160200191610195565b820191906000526020600020905b81548152906001019060200180831161017857829003601f168201915b50508381038252868181546001816001161561010002031660029004815260200191508054600181600116156101000203166002900480156102185780601f106101ed57610100808354040283529160200191610218565b820191906000526020600020905b8154815290600101906020018083116101fb57829003601f168201915b505097505050505050505060405180910390f35b341561023757600080fd5b61024d6004808035906020019091905050610713565b60405180868152602001858152602001806020018473ffffffffffffffffffffffffffffffffffffffff1673ffffffffffffffffffffffffffffffffffffffff16815260200183815260200182810382528581815460018160011615610100020316600290048152602001915080546001816001161561010002031660029004801561031a5780601f106102ef5761010080835404028352916020019161031a565b820191906000526020600020905b8154815290600101906020018083116102fd57829003601f168201915b5050965050505050505060405180910390f35b341561033857600080fd5b610340610768565b6040518082815260200191505060405180910390f35b341561036157600080fd5b6103776004808035906020019091905050610771565b6040518080602001838152602001828103825284818151815260200191508051906020019080838360005b838110156103bd5780820151818401526020810190506103a2565b50505050905090810190601f1680156103ea5780820380516001836020036101000a031916815260200191505b50935050505060405180910390f35b341561040457600080fd5b610430600480803573ffffffffffffffffffffffffffffffffffffffff1690602001909190505061084a565b6040518082815260200191505060405180910390f35b341561045157600080fd5b6104e4600480803590602001908201803590602001908080601f0160208091040260200160405190810160405280939291908181526020018383808284378201915050505050509190803590602001908201803590602001908080601f016020809104026020016040519081016040528093929190818152602001838380828437820191505050505050919050506108f2565b604051808215151515815260200191505060405180910390f35b341561050957600080fd5b61053e600480803573ffffffffffffffffffffffffffffffffffffffff169060200190919080359060200190919050506109f6565b604051808215151515815260200191505060405180910390f35b341561056357600080fd5b6105bc600480803590602001909190803590602001908201803590602001908080601f01602080910402602001604051908101604052809392919081815260200183838082843782019150505050505091905050610b01565b604051808215151515815260200191505060405180910390f35b34156105e157600080fd5b6105e9610bfc565b6040518080602001848152602001838152602001828103825285818151815260200191508051906020019080838360005b8381101561063557808201518184015260208101905061061a565b50505050905090810190601f1680156106625780820380516001836020036101000a031916815260200191505b5094505050505060405180910390f35b341561067d57600080fd5b6106a9600480803573ffffffffffffffffffffffffffffffffffffffff16906020019091905050610ce5565b6040518082815260200191505060405180910390f35b6002602052806000526040600020600091509050806000015490806001019080600201908060030154908060040160009054906101000a900473ffffffffffffffffffffffffffffffffffffffff16905085565b600360205280600052604060002060009150905080600001549080600101549080600201908060030160009054906101000a900473ffffffffffffffffffffffffffffffffffffffff16908060040154905085565b60008054905090565b610779610d2e565b6000600260008481526020019081526020016000206002018054600181600116156101000203166002900480601f0160208091040260200160405190810160405280929190818152602001828054600181600116156101000203166002900480156108255780601f106107fa57610100808354040283529160200191610825565b820191906000526020600020905b81548152906001019060200180831161080857829003601f168201915b5050505050915060026000848152602001908152602001600020600301549050915091565b600073__ConvertLib____________________________632d2c1d8061086f84610ce5565b60026000604051602001526040518363ffffffff167c0100000000000000000000000000000000000000000000000000000000028152600401808381526020018281526020019250505060206040518083038186803b15156108d057600080fd5b6102c65a03f415156108e157600080fd5b505050604051805190509050919050565b60008054600260008054815260200190815260200160002060000181905550826002600080548152602001908152602001600020600101908051906020019061093c929190610d42565b508160026000805481526020019081526020016000206002019080519060200190610968929190610d42565b504260026000805481526020019081526020016000206003018190555033600260008054815260200190815260200160002060040160006101000a81548173ffffffffffffffffffffffffffffffffffffffff021916908373ffffffffffffffffffffffffffffffffffffffff16021790555060008081548092919060010191905055506001905092915050565b600081600460003373ffffffffffffffffffffffffffffffffffffffff1673ffffffffffffffffffffffffffffffffffffffff1681526020019081526020016000206000828254039250508190555081600460008573ffffffffffffffffffffffffffffffffffffffff1673ffffffffffffffffffffffffffffffffffffffff168152602001908152602001600020600082825401925050819055508273ffffffffffffffffffffffffffffffffffffffff163373ffffffffffffffffffffffffffffffffffffffff167f8b0c34a52f9e28d78caaa7066cd047b398dae74941a208b77777420f492bd7e1846040518082815260200191505060405180910390a36001905092915050565b6000600154600360006001548152602001908152602001600020600101819055508260036000600154815260200190815260200160002060000181905550816003600060015481526020019081526020016000206002019080519060200190610b6b929190610d42565b503360036000600154815260200190815260200160002060030160006101000a81548173ffffffffffffffffffffffffffffffffffffffff021916908373ffffffffffffffffffffffffffffffffffffffff16021790555042600360006001548152602001908152602001600020600401819055506001600081548092919060010191905055506001905092915050565b610c04610d2e565b6000806002600060016000540381526020019081526020016000206002018054600181600116156101000203166002900480601f016020809104026020016040519081016040528092919081815260200182805460018160011615610100020316600290048015610cb65780601f10610c8b57610100808354040283529160200191610cb6565b820191906000526020600020905b815481529060010190602001808311610c9957829003601f168201915b505050505092506002600060016000540381526020019081526020016000206003015491506000549050909192565b6000600460008373ffffffffffffffffffffffffffffffffffffffff1673ffffffffffffffffffffffffffffffffffffffff168152602001908152602001600020549050919050565b602060405190810160405280600081525090565b828054600181600116156101000203166002900490600052602060002090601f016020900481019282601f10610d8357805160ff1916838001178555610db1565b82800160010185558215610db1579182015b82811115610db0578251825591602001919060010190610d95565b5b509050610dbe9190610dc2565b5090565b610de491905b80821115610de0576000816000905550600101610dc8565b5090565b905600a165627a7a7230582073c272f1837c0dfec84d8331f7ff2d61f5fcae0d8cdf5097143cbcf0e8a19dbf0029",
  "source": "pragma solidity ^0.4.11;\n\nimport \"./ConvertLib.sol\";\n\ncontract MetaCoin {\n  struct Post {\n    uint id;\n    string title;\n    string content;\n    uint timestamp;\n    address createdBy;\n  }\n\n  struct Answer {\n    uint postId;\n    uint id;\n    string content;\n    address createdBy;\n    uint timestamp;\n  }\n\n  uint numOfPosts;\n  uint numOfAnswers;\n\n  mapping (uint => Post) public posts;\n  mapping (uint => Answer) public answers;\n  mapping (address => int) balances;\n\n  event Transfer(address indexed _from, address indexed _to, int256 _value);\n\n  function MetaCoin() {\n    numOfPosts = 0;\n    numOfAnswers = 0;\n  }\n\n  function sendCoin(address receiver, int amount) returns (bool) {\n    balances[msg.sender] -= amount;\n    balances[receiver] += amount;\n    Transfer(msg.sender, receiver, amount);\n    return true;\n  }\n\n  function getBalanceInEth(address addr) constant returns (int) {\n    return ConvertLib.convert(getBalance(addr), 2);\n  }\n\n  function getBalance(address addr) constant public returns (int) {\n    return balances[addr];\n  }\n\n  function postQuestion(string title, string content) public returns (bool) {\n    posts[numOfPosts].id = numOfPosts;\n    posts[numOfPosts].title = title;\n    posts[numOfPosts].content = content;\n    posts[numOfPosts].timestamp = now;\n    posts[numOfPosts].createdBy = msg.sender;\n    numOfPosts++;\n    return true;\n  }\n\n  function getPost(uint postID) constant public returns (string content, uint timestamp) {\n    content = posts[postID].content;\n    timestamp = posts[postID].timestamp;\n  }\n\n  function getLatestPost() constant public returns (string content, uint timestamp, uint numberOfPosts) {\n    content = posts[numOfPosts - 1].content;\n    timestamp = posts[numOfPosts - 1].timestamp;\n    numberOfPosts = numOfPosts;\n  }\n\n  function getNumberOfPosts() constant public returns (uint num) {\n    num = numOfPosts;\n  }\n\n  function postAnswer(uint postId, string answer) public returns (bool) {\n    answers[numOfAnswers].id = numOfAnswers;\n    answers[numOfAnswers].postId = postId;\n    answers[numOfAnswers].content = answer;\n    answers[numOfAnswers].createdBy = msg.sender;\n    answers[numOfAnswers].timestamp = now;\n    numOfAnswers++;\n    return true;\n  }\n}\n",
  "sourcePath": "/Users/sunjinlee/workspace/eth/my-little-ponies/contracts/MetaCoin.sol",
  "compiler": {
    "name": "solc",
    "version": "0.4.18+commit.9cf6e910.Emscripten.clang"
  },
  "schemaVersion": "1.0.1",
  "updatedAt": "2017-11-07T09:07:31.698Z"
}