{
  "contractName": "MetaCoin",
  "abi": [
    {
      "constant": true,
      "inputs": [
        {
          "name": "",
          "type": "uint256"
        }
      ],
      "name": "posts",
      "outputs": [
        {
          "name": "timestamp",
          "type": "uint256"
        },
        {
          "name": "content",
          "type": "string"
        }
      ],
      "payable": false,
      "stateMutability": "view",
      "type": "function"
    },
    {
      "constant": true,
      "inputs": [],
      "name": "getNumberOfPosts",
      "outputs": [
        {
          "name": "numOfPosts",
          "type": "uint256"
        }
      ],
      "payable": false,
      "stateMutability": "view",
      "type": "function"
    },
    {
      "constant": false,
      "inputs": [
        {
          "name": "postID",
          "type": "uint256"
        }
      ],
      "name": "getPost",
      "outputs": [
        {
          "name": "content",
          "type": "string"
        },
        {
          "name": "timestamp",
          "type": "uint256"
        }
      ],
      "payable": false,
      "stateMutability": "nonpayable",
      "type": "function"
    },
    {
      "constant": false,
      "inputs": [
        {
          "name": "addr",
          "type": "address"
        }
      ],
      "name": "getBalanceInEth",
      "outputs": [
        {
          "name": "",
          "type": "uint256"
        }
      ],
      "payable": false,
      "stateMutability": "nonpayable",
      "type": "function"
    },
    {
      "constant": false,
      "inputs": [
        {
          "name": "receiver",
          "type": "address"
        },
        {
          "name": "amount",
          "type": "uint256"
        }
      ],
      "name": "sendCoin",
      "outputs": [
        {
          "name": "sufficient",
          "type": "bool"
        }
      ],
      "payable": false,
      "stateMutability": "nonpayable",
      "type": "function"
    },
    {
      "constant": false,
      "inputs": [
        {
          "name": "content",
          "type": "string"
        }
      ],
      "name": "createPost",
      "outputs": [
        {
          "name": "sufficient",
          "type": "bool"
        }
      ],
      "payable": false,
      "stateMutability": "nonpayable",
      "type": "function"
    },
    {
      "constant": true,
      "inputs": [],
      "name": "getLatestPost",
      "outputs": [
        {
          "name": "content",
          "type": "string"
        },
        {
          "name": "timestamp",
          "type": "uint256"
        },
        {
          "name": "numberOfPosts",
          "type": "uint256"
        }
      ],
      "payable": false,
      "stateMutability": "view",
      "type": "function"
    },
    {
      "constant": false,
      "inputs": [
        {
          "name": "addr",
          "type": "address"
        }
      ],
      "name": "getBalance",
      "outputs": [
        {
          "name": "",
          "type": "uint256"
        }
      ],
      "payable": false,
      "stateMutability": "nonpayable",
      "type": "function"
    },
    {
      "inputs": [],
      "payable": false,
      "stateMutability": "nonpayable",
      "type": "constructor"
    },
    {
      "anonymous": false,
      "inputs": [
        {
          "indexed": true,
          "name": "_from",
          "type": "address"
        },
        {
          "indexed": true,
          "name": "_to",
          "type": "address"
        },
        {
          "indexed": false,
          "name": "_value",
          "type": "uint256"
        }
      ],
      "name": "Transfer",
      "type": "event"
    }
  ],
  "bytecode": "0x6060604052341561000f57600080fd5b612710600260003273ffffffffffffffffffffffffffffffffffffffff1673ffffffffffffffffffffffffffffffffffffffff16815260200190815260200160002081905550600080819055506109aa8061006b6000396000f30060606040526004361061008e576000357c0100000000000000000000000000000000000000000000000000000000900463ffffffff1680630b1e7f831461009357806337bbcaa01461015357806340731c241461017c5780637bd703e81461021f57806390b98a111461026c578063c7303c61146102c6578063e04e6d541461033b578063f8b2cb4f146103d7575b600080fd5b341561009e57600080fd5b6100b46004808035906020019091905050610424565b60405180838152602001806020018281038252838181546001816001161561010002031660029004815260200191508054600181600116156101000203166002900480156101435780601f1061011857610100808354040283529160200191610143565b820191906000526020600020905b81548152906001019060200180831161012657829003601f168201915b5050935050505060405180910390f35b341561015e57600080fd5b610166610447565b6040518082815260200191505060405180910390f35b341561018757600080fd5b61019d600480803590602001909190505061044f565b6040518080602001838152602001828103825284818151815260200191508051906020019080838360005b838110156101e35780820151818401526020810190506101c8565b50505050905090810190601f1680156102105780820380516001836020036101000a031916815260200191505b50935050505060405180910390f35b341561022a57600080fd5b610256600480803573ffffffffffffffffffffffffffffffffffffffff1690602001909190505061052b565b6040518082815260200191505060405180910390f35b341561027757600080fd5b6102ac600480803573ffffffffffffffffffffffffffffffffffffffff169060200190919080359060200190919050506105d3565b604051808215151515815260200191505060405180910390f35b34156102d157600080fd5b610321600480803590602001908201803590602001908080601f0160208091040260200160405190810160405280939291908181526020018383808284378201915050505050509190505061072f565b604051808215151515815260200191505060405180910390f35b341561034657600080fd5b61034e610793565b6040518080602001848152602001838152602001828103825285818151815260200191508051906020019080838360005b8381101561039a57808201518184015260208101905061037f565b50505050905090810190601f1680156103c75780820380516001836020036101000a031916815260200191505b5094505050505060405180910390f35b34156103e257600080fd5b61040e600480803573ffffffffffffffffffffffffffffffffffffffff1690602001909190505061087c565b6040518082815260200191505060405180910390f35b600160205280600052604060002060009150905080600001549080600101905082565b600080905090565b6104576108c5565b6000600160008481526020019081526020016000206001016001600085815260200190815260200160002060000154818054600181600116156101000203166002900480601f01602080910402602001604051908101604052809291908181526020018280546001816001161561010002031660029004801561051b5780601f106104f05761010080835404028352916020019161051b565b820191906000526020600020905b8154815290600101906020018083116104fe57829003601f168201915b5050505050915091509150915091565b600073__ConvertLib____________________________6396e4ee3d6105508461087c565b60026000604051602001526040518363ffffffff167c0100000000000000000000000000000000000000000000000000000000028152600401808381526020018281526020019250505060206040518083038186803b15156105b157600080fd5b6102c65a03f415156105c257600080fd5b505050604051805190509050919050565b600081600260003373ffffffffffffffffffffffffffffffffffffffff1673ffffffffffffffffffffffffffffffffffffffff1681526020019081526020016000205410156106255760009050610729565b81600260003373ffffffffffffffffffffffffffffffffffffffff1673ffffffffffffffffffffffffffffffffffffffff1681526020019081526020016000206000828254039250508190555081600260008573ffffffffffffffffffffffffffffffffffffffff1673ffffffffffffffffffffffffffffffffffffffff168152602001908152602001600020600082825401925050819055508273ffffffffffffffffffffffffffffffffffffffff163373ffffffffffffffffffffffffffffffffffffffff167fddf252ad1be2c89b69c2b068fc378daa952ba7f163c4a11628f55a4df523b3ef846040518082815260200191505060405180910390a3600190505b92915050565b60004260016000805481526020019081526020016000206000018190555081600160008054815260200190815260200160002060010190805190602001906107789291906108d9565b50600080815480929190600101919050555060019050919050565b61079b6108c5565b6000806001600060016000540381526020019081526020016000206001018054600181600116156101000203166002900480601f01602080910402602001604051908101604052809291908181526020018280546001816001161561010002031660029004801561084d5780601f106108225761010080835404028352916020019161084d565b820191906000526020600020905b81548152906001019060200180831161083057829003601f168201915b505050505092506001600060016000540381526020019081526020016000206000015491506000549050909192565b6000600260008373ffffffffffffffffffffffffffffffffffffffff1673ffffffffffffffffffffffffffffffffffffffff168152602001908152602001600020549050919050565b602060405190810160405280600081525090565b828054600181600116156101000203166002900490600052602060002090601f016020900481019282601f1061091a57805160ff1916838001178555610948565b82800160010185558215610948579182015b8281111561094757825182559160200191906001019061092c565b5b5090506109559190610959565b5090565b61097b91905b8082111561097757600081600090555060010161095f565b5090565b905600a165627a7a72305820a9141b2e10e2465fb509f9c950b5990bd199665c97e2934755d2c0e644ba4ec80029",
  "source": "pragma solidity ^0.4.11;\n\nimport \"./ConvertLib.sol\";\n\ncontract MetaCoin {\n  struct Post {\n    uint timestamp;\n    string content;\n  }\n\n  uint numOfPosts;\n\n  mapping (uint => Post) public posts;\n  mapping (address => uint) balances;\n\n  event Transfer(address indexed _from, address indexed _to, uint256 _value);\n\n  function MetaCoin() {\n    balances[tx.origin] = 10000;\n    numOfPosts = 0;\n  }\n\n  function sendCoin(address receiver, uint amount) returns (bool sufficient) {\n    if (balances[msg.sender] < amount) return false;\n    balances[msg.sender] -= amount;\n    balances[receiver] += amount;\n    Transfer(msg.sender, receiver, amount);\n    return true;\n  }\n\n  function getBalanceInEth(address addr) returns (uint) {\n    return ConvertLib.convert(getBalance(addr), 2);\n  }\n\n  function getBalance(address addr) public returns (uint) {\n    return balances[addr];\n  }\n\n  function createPost(string content) public returns (bool sufficient) {\n    posts[numOfPosts].timestamp = now;\n    posts[numOfPosts].content = content;\n    numOfPosts++;\n    return true;\n  }\n\n  function getPost(uint postID) public returns (string content, uint timestamp) {\n    return (posts[postID].content, posts[postID].timestamp);\n  }\n\n  function getLatestPost() constant returns (string content, uint timestamp, uint numberOfPosts) {\n    content = posts[numOfPosts - 1].content;\n    timestamp = posts[numOfPosts - 1].timestamp;\n    numberOfPosts = numOfPosts;\n  }\n\n  function getNumberOfPosts() public constant returns (uint numOfPosts) {\n    return numOfPosts;\n  }\n}\n",
  "sourcePath": "/Users/sunjinlee/workspace/eth/voting/contracts/MetaCoin.sol",
  "compiler": {
    "name": "solc",
    "version": "0.4.18+commit.9cf6e910.Emscripten.clang"
  },
  "schemaVersion": "1.0.1",
  "updatedAt": "2017-11-07T05:12:50.720Z"
}