{
  "contractName": "MetaCoin",
  "abi": [
    {
      "constant": true,
      "inputs": [
        {
          "name": "",
          "type": "uint256"
        }
      ],
      "name": "posts",
      "outputs": [
        {
          "name": "id",
          "type": "uint256"
        },
        {
          "name": "timestamp",
          "type": "uint256"
        },
        {
          "name": "content",
          "type": "string"
        },
        {
          "name": "createdBy",
          "type": "address"
        }
      ],
      "payable": false,
      "stateMutability": "view",
      "type": "function"
    },
    {
      "constant": true,
      "inputs": [
        {
          "name": "",
          "type": "uint256"
        },
        {
          "name": "",
          "type": "uint256"
        }
      ],
      "name": "answers",
      "outputs": [
        {
          "name": "postID",
          "type": "uint256"
        },
        {
          "name": "content",
          "type": "string"
        },
        {
          "name": "createdBy",
          "type": "address"
        },
        {
          "name": "timestamp",
          "type": "uint256"
        }
      ],
      "payable": false,
      "stateMutability": "view",
      "type": "function"
    },
    {
      "constant": true,
      "inputs": [],
      "name": "getNumberOfPosts",
      "outputs": [
        {
          "name": "num",
          "type": "uint256"
        }
      ],
      "payable": false,
      "stateMutability": "view",
      "type": "function"
    },
    {
      "constant": false,
      "inputs": [
        {
          "name": "postID",
          "type": "uint256"
        }
      ],
      "name": "getPost",
      "outputs": [
        {
          "name": "content",
          "type": "string"
        },
        {
          "name": "timestamp",
          "type": "uint256"
        }
      ],
      "payable": false,
      "stateMutability": "nonpayable",
      "type": "function"
    },
    {
      "constant": false,
      "inputs": [
        {
          "name": "postID",
          "type": "uint256"
        },
        {
          "name": "content",
          "type": "string"
        }
      ],
      "name": "createAnswer",
      "outputs": [
        {
          "name": "id",
          "type": "uint256"
        }
      ],
      "payable": false,
      "stateMutability": "nonpayable",
      "type": "function"
    },
    {
      "constant": false,
      "inputs": [
        {
          "name": "addr",
          "type": "address"
        }
      ],
      "name": "getBalanceInEth",
      "outputs": [
        {
          "name": "",
          "type": "int256"
        }
      ],
      "payable": false,
      "stateMutability": "nonpayable",
      "type": "function"
    },
    {
      "constant": false,
      "inputs": [
        {
          "name": "receiver",
          "type": "address"
        },
        {
          "name": "amount",
          "type": "int256"
        }
      ],
      "name": "sendCoin",
      "outputs": [
        {
          "name": "sufficient",
          "type": "bool"
        }
      ],
      "payable": false,
      "stateMutability": "nonpayable",
      "type": "function"
    },
    {
      "constant": false,
      "inputs": [
        {
          "name": "content",
          "type": "string"
        }
      ],
      "name": "createPost",
      "outputs": [
        {
          "name": "id",
          "type": "uint256"
        }
      ],
      "payable": false,
      "stateMutability": "nonpayable",
      "type": "function"
    },
    {
      "constant": true,
      "inputs": [],
      "name": "getLatestPost",
      "outputs": [
        {
          "name": "content",
          "type": "string"
        },
        {
          "name": "timestamp",
          "type": "uint256"
        },
        {
          "name": "numberOfPosts",
          "type": "uint256"
        }
      ],
      "payable": false,
      "stateMutability": "view",
      "type": "function"
    },
    {
      "constant": false,
      "inputs": [
        {
          "name": "addr",
          "type": "address"
        }
      ],
      "name": "getBalance",
      "outputs": [
        {
          "name": "",
          "type": "int256"
        }
      ],
      "payable": false,
      "stateMutability": "nonpayable",
      "type": "function"
    },
    {
      "inputs": [],
      "payable": false,
      "stateMutability": "nonpayable",
      "type": "constructor"
    },
    {
      "anonymous": false,
      "inputs": [
        {
          "indexed": true,
          "name": "_from",
          "type": "address"
        },
        {
          "indexed": true,
          "name": "_to",
          "type": "address"
        },
        {
          "indexed": false,
          "name": "_value",
          "type": "int256"
        }
      ],
      "name": "Transfer",
      "type": "event"
    }
  ],
  "bytecode": "0x6060604052341561000f57600080fd5b60008081905550610c32806100256000396000f3006060604052600436106100a4576000357c0100000000000000000000000000000000000000000000000000000000900463ffffffff1680630b1e7f83146100a95780632401519c146101a357806337bbcaa0146102a657806340731c24146102cf5780634fec390c146103725780637bd703e8146103ec578063bc9e7d7f14610439578063c7303c6114610493578063e04e6d5414610504578063f8b2cb4f146105a0575b600080fd5b34156100b457600080fd5b6100ca60048080359060200190919050506105ed565b60405180858152602001848152602001806020018373ffffffffffffffffffffffffffffffffffffffff1673ffffffffffffffffffffffffffffffffffffffff1681526020018281038252848181546001816001161561010002031660029004815260200191508054600181600116156101000203166002900480156101915780601f1061016657610100808354040283529160200191610191565b820191906000526020600020905b81548152906001019060200180831161017457829003601f168201915b50509550505050505060405180910390f35b34156101ae57600080fd5b6101cd600480803590602001909190803590602001909190505061063c565b60405180858152602001806020018473ffffffffffffffffffffffffffffffffffffffff1673ffffffffffffffffffffffffffffffffffffffff1681526020018381526020018281038252858181546001816001161561010002031660029004815260200191508054600181600116156101000203166002900480156102945780601f1061026957610100808354040283529160200191610294565b820191906000526020600020905b81548152906001019060200180831161027757829003601f168201915b50509550505050505060405180910390f35b34156102b157600080fd5b6102b96106a7565b6040518082815260200191505060405180910390f35b34156102da57600080fd5b6102f060048080359060200190919050506106b0565b6040518080602001838152602001828103825284818151815260200191508051906020019080838360005b8381101561033657808201518184015260208101905061031b565b50505050905090810190601f1680156103635780820380516001836020036101000a031916815260200191505b50935050505060405180910390f35b341561037d57600080fd5b6103d6600480803590602001909190803590602001908201803590602001908080601f01602080910402602001604051908101604052809392919081815260200183838082843782019150505050505091905050610789565b6040518082815260200191505060405180910390f35b34156103f757600080fd5b610423600480803573ffffffffffffffffffffffffffffffffffffffff16906020019091905050610791565b6040518082815260200191505060405180910390f35b341561044457600080fd5b610479600480803573ffffffffffffffffffffffffffffffffffffffff16906020019091908035906020019091905050610839565b604051808215151515815260200191505060405180910390f35b341561049e57600080fd5b6104ee600480803590602001908201803590602001908080601f01602080910402602001604051908101604052809392919081815260200183838082843782019150505050505091905050610944565b6040518082815260200191505060405180910390f35b341561050f57600080fd5b610517610a1b565b6040518080602001848152602001838152602001828103825285818151815260200191508051906020019080838360005b83811015610563578082015181840152602081019050610548565b50505050905090810190601f1680156105905780820380516001836020036101000a031916815260200191505b5094505050505060405180910390f35b34156105ab57600080fd5b6105d7600480803573ffffffffffffffffffffffffffffffffffffffff16906020019091905050610b04565b6040518082815260200191505060405180910390f35b600160205280600052604060002060009150905080600001549080600101549080600201908060030160009054906101000a900473ffffffffffffffffffffffffffffffffffffffff16905084565b60026020528160005260406000208181548110151561065757fe5b90600052602060002090600402016000915091505080600001549080600101908060020160009054906101000a900473ffffffffffffffffffffffffffffffffffffffff16908060030154905084565b60008054905090565b6106b8610b4d565b6000600160008481526020019081526020016000206002018054600181600116156101000203166002900480601f0160208091040260200160405190810160405280929190818152602001828054600181600116156101000203166002900480156107645780601f1061073957610100808354040283529160200191610764565b820191906000526020600020905b81548152906001019060200180831161074757829003601f168201915b5050505050915060016000848152602001908152602001600020600101549050915091565b600092915050565b600073__ConvertLib____________________________632d2c1d806107b684610b04565b60026000604051602001526040518363ffffffff167c0100000000000000000000000000000000000000000000000000000000028152600401808381526020018281526020019250505060206040518083038186803b151561081757600080fd5b6102c65a03f4151561082857600080fd5b505050604051805190509050919050565b600081600360003373ffffffffffffffffffffffffffffffffffffffff1673ffffffffffffffffffffffffffffffffffffffff1681526020019081526020016000206000828254039250508190555081600360008573ffffffffffffffffffffffffffffffffffffffff1673ffffffffffffffffffffffffffffffffffffffff168152602001908152602001600020600082825401925050819055508273ffffffffffffffffffffffffffffffffffffffff163373ffffffffffffffffffffffffffffffffffffffff167f8b0c34a52f9e28d78caaa7066cd047b398dae74941a208b77777420f492bd7e1846040518082815260200191505060405180910390a36001905092915050565b600080600160008054815260200190815260200160002060000181905550816001600080548152602001908152602001600020600201908051906020019061098d929190610b61565b5033600160008054815260200190815260200160002060030160006101000a81548173ffffffffffffffffffffffffffffffffffffffff021916908373ffffffffffffffffffffffffffffffffffffffff1602179055504260016000805481526020019081526020016000206001018190555060005490506000808154809291906001019190505550919050565b610a23610b4d565b6000806001600060016000540381526020019081526020016000206002018054600181600116156101000203166002900480601f016020809104026020016040519081016040528092919081815260200182805460018160011615610100020316600290048015610ad55780601f10610aaa57610100808354040283529160200191610ad5565b820191906000526020600020905b815481529060010190602001808311610ab857829003601f168201915b505050505092506001600060016000540381526020019081526020016000206001015491506000549050909192565b6000600360008373ffffffffffffffffffffffffffffffffffffffff1673ffffffffffffffffffffffffffffffffffffffff168152602001908152602001600020549050919050565b602060405190810160405280600081525090565b828054600181600116156101000203166002900490600052602060002090601f016020900481019282601f10610ba257805160ff1916838001178555610bd0565b82800160010185558215610bd0579182015b82811115610bcf578251825591602001919060010190610bb4565b5b509050610bdd9190610be1565b5090565b610c0391905b80821115610bff576000816000905550600101610be7565b5090565b905600a165627a7a72305820571d257c79faf6dd19a643600ed9d23f7483b94bc54c4c7b1b1c71618c3568a40029",
  "source": "pragma solidity ^0.4.11;\n\nimport \"./ConvertLib.sol\";\n\ncontract MetaCoin {\n  struct Post {\n    uint id;\n    uint timestamp;\n    string content;\n    address createdBy;\n  }\n\n  struct Answer {\n    uint postID;\n    string content;\n    address createdBy;\n    uint timestamp;\n  }\n\n  uint numOfPosts;\n\n  mapping (uint => Post) public posts;\n  mapping (uint => Answer[]) public answers;\n  mapping (address => int) balances;\n\n  event Transfer(address indexed _from, address indexed _to, int256 _value);\n\n  function MetaCoin() {\n    numOfPosts = 0;\n  }\n\n  function sendCoin(address receiver, int amount) returns (bool sufficient) {\n    balances[msg.sender] -= amount;\n    balances[receiver] += amount;\n    Transfer(msg.sender, receiver, amount);\n    return true;\n  }\n\n  function getBalanceInEth(address addr) returns (int) {\n    return ConvertLib.convert(getBalance(addr), 2);\n  }\n\n  function getBalance(address addr) public returns (int) {\n    return balances[addr];\n  }\n\n  function createPost(string content) public returns (uint id) {\n    posts[numOfPosts].id = id;\n    posts[numOfPosts].content = content;\n    posts[numOfPosts].createdBy = msg.sender;\n    posts[numOfPosts].timestamp = now;\n    id = numOfPosts;\n    numOfPosts++;\n  }\n\n  function getPost(uint postID) public returns (string content, uint timestamp) {\n    content = posts[postID].content;\n    timestamp = posts[postID].timestamp;\n  }\n\n  function getLatestPost() constant returns (string content, uint timestamp, uint numberOfPosts) {\n    content = posts[numOfPosts - 1].content;\n    timestamp = posts[numOfPosts - 1].timestamp;\n    numberOfPosts = numOfPosts;\n  }\n\n  function getNumberOfPosts() public constant returns (uint num) {\n    num = numOfPosts;\n  }\n\n  function createAnswer(uint postID, string content) returns (uint id) {\n  }\n}\n",
  "sourcePath": "/Users/sunjinlee/workspace/eth/my-little-ponies/contracts/MetaCoin.sol",
  "compiler": {
    "name": "solc",
    "version": "0.4.18+commit.9cf6e910.Emscripten.clang"
  },
  "schemaVersion": "1.0.1",
  "updatedAt": "2017-11-07T08:26:24.081Z"
}