{
  "contractName": "MetaCoin",
  "abi": [
    {
      "constant": true,
      "inputs": [],
      "name": "isUserCredited",
      "outputs": [
        {
          "name": "",
          "type": "bool"
        }
      ],
      "payable": false,
      "stateMutability": "view",
      "type": "function"
    },
    {
      "constant": true,
      "inputs": [],
      "name": "getNumberOfPosts",
      "outputs": [
        {
          "name": "",
          "type": "uint256"
        }
      ],
      "payable": false,
      "stateMutability": "view",
      "type": "function"
    },
    {
      "constant": true,
      "inputs": [
        {
          "name": "postID",
          "type": "uint256"
        }
      ],
      "name": "getPost",
      "outputs": [
        {
          "name": "content",
          "type": "string"
        }
      ],
      "payable": false,
      "stateMutability": "view",
      "type": "function"
    },
    {
      "constant": false,
      "inputs": [
        {
          "name": "content",
          "type": "string"
        }
      ],
      "name": "postQuestion",
      "outputs": [
        {
          "name": "",
          "type": "bool"
        }
      ],
      "payable": false,
      "stateMutability": "nonpayable",
      "type": "function"
    },
    {
      "constant": false,
      "inputs": [
        {
          "name": "postID",
          "type": "uint256"
        }
      ],
      "name": "likePost",
      "outputs": [
        {
          "name": "",
          "type": "bool"
        }
      ],
      "payable": false,
      "stateMutability": "nonpayable",
      "type": "function"
    },
    {
      "constant": true,
      "inputs": [
        {
          "name": "addr",
          "type": "address"
        }
      ],
      "name": "getBalanceInEth",
      "outputs": [
        {
          "name": "",
          "type": "int256"
        }
      ],
      "payable": false,
      "stateMutability": "view",
      "type": "function"
    },
    {
      "constant": true,
      "inputs": [
        {
          "name": "postID",
          "type": "uint256"
        }
      ],
      "name": "getLikes",
      "outputs": [
        {
          "name": "",
          "type": "uint256"
        }
      ],
      "payable": false,
      "stateMutability": "view",
      "type": "function"
    },
    {
      "constant": false,
      "inputs": [
        {
          "name": "receiver",
          "type": "address"
        },
        {
          "name": "amount",
          "type": "int256"
        }
      ],
      "name": "sendCoin",
      "outputs": [
        {
          "name": "",
          "type": "bool"
        }
      ],
      "payable": false,
      "stateMutability": "nonpayable",
      "type": "function"
    },
    {
      "constant": false,
      "inputs": [],
      "name": "creditForFirstTime",
      "outputs": [
        {
          "name": "",
          "type": "bool"
        }
      ],
      "payable": false,
      "stateMutability": "nonpayable",
      "type": "function"
    },
    {
      "constant": true,
      "inputs": [],
      "name": "getLatestPost",
      "outputs": [
        {
          "name": "content",
          "type": "string"
        }
      ],
      "payable": false,
      "stateMutability": "view",
      "type": "function"
    },
    {
      "constant": true,
      "inputs": [
        {
          "name": "addr",
          "type": "address"
        }
      ],
      "name": "getBalance",
      "outputs": [
        {
          "name": "",
          "type": "int256"
        }
      ],
      "payable": false,
      "stateMutability": "view",
      "type": "function"
    },
    {
      "inputs": [],
      "payable": false,
      "stateMutability": "nonpayable",
      "type": "constructor"
    },
    {
      "anonymous": false,
      "inputs": [
        {
          "indexed": true,
          "name": "_from",
          "type": "address"
        },
        {
          "indexed": true,
          "name": "_to",
          "type": "address"
        },
        {
          "indexed": false,
          "name": "_value",
          "type": "int256"
        }
      ],
      "name": "Transfer",
      "type": "event"
    },
    {
      "anonymous": false,
      "inputs": [
        {
          "indexed": false,
          "name": "id",
          "type": "uint256"
        }
      ],
      "name": "CreatePost",
      "type": "event"
    }
  ],
  "bytecode": "0x6060604052341561000f57600080fd5b60008081905550610c2d806100256000396000f3006060604052600436106100af576000357c0100000000000000000000000000000000000000000000000000000000900463ffffffff16806319bce6a5146100b457806337bbcaa0146100e157806340731c241461010a5780637116cad8146101a6578063725009d31461021b5780637bd703e814610256578063a209081e146102a3578063bc9e7d7f146102da578063d7db32a514610334578063e04e6d5414610361578063f8b2cb4f146103ef575b600080fd5b34156100bf57600080fd5b6100c761043c565b604051808215151515815260200191505060405180910390f35b34156100ec57600080fd5b6100f4610490565b6040518082815260200191505060405180910390f35b341561011557600080fd5b61012b6004808035906020019091905050610499565b6040518080602001828103825283818151815260200191508051906020019080838360005b8381101561016b578082015181840152602081019050610150565b50505050905090810190601f1680156101985780820380516001836020036101000a031916815260200191505b509250505060405180910390f35b34156101b157600080fd5b610201600480803590602001908201803590602001908080601f01602080910402602001604051908101604052809392919081815260200183838082843782019150505050505091905050610557565b604051808215151515815260200191505060405180910390f35b341561022657600080fd5b61023c60048080359060200190919050506105f4565b604051808215151515815260200191505060405180910390f35b341561026157600080fd5b61028d600480803573ffffffffffffffffffffffffffffffffffffffff16906020019091905050610778565b6040518082815260200191505060405180910390f35b34156102ae57600080fd5b6102c46004808035906020019091905050610820565b6040518082815260200191505060405180910390f35b34156102e557600080fd5b61031a600480803573ffffffffffffffffffffffffffffffffffffffff1690602001909190803590602001909190505061083d565b604051808215151515815260200191505060405180910390f35b341561033f57600080fd5b610347610948565b604051808215151515815260200191505060405180910390f35b341561036c57600080fd5b610374610a42565b6040518080602001828103825283818151815260200191508051906020019080838360005b838110156103b4578082015181840152602081019050610399565b50505050905090810190601f1680156103e15780820380516001836020036101000a031916815260200191505b509250505060405180910390f35b34156103fa57600080fd5b610426600480803573ffffffffffffffffffffffffffffffffffffffff16906020019091905050610aff565b6040518082815260200191505060405180910390f35b6000600460003373ffffffffffffffffffffffffffffffffffffffff1673ffffffffffffffffffffffffffffffffffffffff16815260200190815260200160002060009054906101000a900460ff16905090565b60008054905090565b6104a1610b48565b600160008381526020019081526020016000206000018054600181600116156101000203166002900480601f01602080910402602001604051908101604052809291908181526020018280546001816001161561010002031660029004801561054b5780601f106105205761010080835404028352916020019161054b565b820191906000526020600020905b81548152906001019060200180831161052e57829003601f168201915b50505050509050919050565b6000600160008082825401925050819055508160016000805481526020019081526020016000206000019080519060200190610594929190610b5c565b5033600160008054815260200190815260200160002060010160006101000a81548173ffffffffffffffffffffffffffffffffffffffff021916908373ffffffffffffffffffffffffffffffffffffffff16021790555060019050919050565b60006001600083815260200190815260200160002060020160003373ffffffffffffffffffffffffffffffffffffffff1673ffffffffffffffffffffffffffffffffffffffff16815260200190815260200160002060009054906101000a900460ff16151561076f57600a600360006001600086815260200190815260200160002060010160009054906101000a900473ffffffffffffffffffffffffffffffffffffffff1673ffffffffffffffffffffffffffffffffffffffff1673ffffffffffffffffffffffffffffffffffffffff16815260200190815260200160002060008282540192505081905550600180600084815260200190815260200160002060020160003373ffffffffffffffffffffffffffffffffffffffff1673ffffffffffffffffffffffffffffffffffffffff16815260200190815260200160002060006101000a81548160ff021916908315150217905550600160026000848152602001908152602001600020600082825401925050819055505b60019050919050565b600073__ConvertLib____________________________632d2c1d8061079d84610aff565b60026000604051602001526040518363ffffffff167c0100000000000000000000000000000000000000000000000000000000028152600401808381526020018281526020019250505060206040518083038186803b15156107fe57600080fd5b6102c65a03f4151561080f57600080fd5b505050604051805190509050919050565b600060026000838152602001908152602001600020549050919050565b600081600360003373ffffffffffffffffffffffffffffffffffffffff1673ffffffffffffffffffffffffffffffffffffffff1681526020019081526020016000206000828254039250508190555081600360008573ffffffffffffffffffffffffffffffffffffffff1673ffffffffffffffffffffffffffffffffffffffff168152602001908152602001600020600082825401925050819055508273ffffffffffffffffffffffffffffffffffffffff163373ffffffffffffffffffffffffffffffffffffffff167f8b0c34a52f9e28d78caaa7066cd047b398dae74941a208b77777420f492bd7e1846040518082815260200191505060405180910390a36001905092915050565b6000600460003373ffffffffffffffffffffffffffffffffffffffff1673ffffffffffffffffffffffffffffffffffffffff16815260200190815260200160002060009054906101000a900460ff161515610a3b576064600360003373ffffffffffffffffffffffffffffffffffffffff1673ffffffffffffffffffffffffffffffffffffffff168152602001908152602001600020819055506001600460003373ffffffffffffffffffffffffffffffffffffffff1673ffffffffffffffffffffffffffffffffffffffff16815260200190815260200160002060006101000a81548160ff0219169083151502179055505b6001905090565b610a4a610b48565b60016000805481526020019081526020016000206000018054600181600116156101000203166002900480601f016020809104026020016040519081016040528092919081815260200182805460018160011615610100020316600290048015610af55780601f10610aca57610100808354040283529160200191610af5565b820191906000526020600020905b815481529060010190602001808311610ad857829003601f168201915b5050505050905090565b6000600360008373ffffffffffffffffffffffffffffffffffffffff1673ffffffffffffffffffffffffffffffffffffffff168152602001908152602001600020549050919050565b602060405190810160405280600081525090565b828054600181600116156101000203166002900490600052602060002090601f016020900481019282601f10610b9d57805160ff1916838001178555610bcb565b82800160010185558215610bcb579182015b82811115610bca578251825591602001919060010190610baf565b5b509050610bd89190610bdc565b5090565b610bfe91905b80821115610bfa576000816000905550600101610be2565b5090565b905600a165627a7a723058206cc3a7a3d59d50b01d554f7ba30789e8ddbd93bfc40262e2f59e7930278ddea70029",
  "source": "pragma solidity ^0.4.11;\n\nimport \"./ConvertLib.sol\";\n\ncontract MetaCoin {\n  struct Post {\n    string content;\n    address createdBy;\n    mapping (address => bool) isVoted;\n  }\n\n  uint numOfPosts;\n\n  mapping (uint => Post) posts;\n  mapping (uint => uint) likes;\n  mapping (address => int) balances;\n  mapping (address => bool) isCredited;\n\n  event Transfer(address indexed _from, address indexed _to, int256 _value);\n  event CreatePost(uint id);\n\n  function MetaCoin() {\n    numOfPosts = 0;\n  }\n\n  function isUserCredited() constant returns (bool) {\n    return isCredited[msg.sender];\n  }\n\n  function creditForFirstTime() returns (bool) {\n    if (!isCredited[msg.sender]) {\n      balances[msg.sender] = 100;\n      isCredited[msg.sender] = true;\n    }\n\n    return true;\n  }\n\n  function sendCoin(address receiver, int amount) returns (bool) {\n    balances[msg.sender] -= amount;\n    balances[receiver] += amount;\n    Transfer(msg.sender, receiver, amount);\n    return true;\n  }\n\n  function getBalanceInEth(address addr) constant returns (int) {\n    return ConvertLib.convert(getBalance(addr), 2);\n  }\n\n  function getBalance(address addr) public constant returns (int) {\n    return balances[addr];\n  }\n\n  function postQuestion(string content) public returns (bool) {\n    numOfPosts += 1;\n    posts[numOfPosts].content = content;\n    posts[numOfPosts].createdBy = msg.sender;\n    return true;\n  }\n\n  function getPost(uint postID) constant public returns (string content) {\n    content = posts[postID].content;\n  }\n\n  function getLatestPost() constant public returns (string content) {\n    content = posts[numOfPosts].content;\n  }\n\n  function getNumberOfPosts() constant public returns (uint) {\n    return numOfPosts;\n  }\n\n  function likePost(uint postID) public returns (bool) {\n    if (!posts[postID].isVoted[msg.sender]) {\n      balances[posts[postID].createdBy] += 10;\n      posts[postID].isVoted[msg.sender] = true;\n      likes[postID] += 1;\n    }\n\n    return true;\n  }\n\n  function getLikes(uint postID) public constant returns (uint) {\n    return likes[postID];\n  }\n}\n",
  "sourcePath": "/Users/sunjinlee/workspace/eth/my-little-ponies/contracts/MetaCoin.sol",
  "compiler": {
    "name": "solc",
    "version": "0.4.18+commit.9cf6e910.Emscripten.clang"
  },
  "schemaVersion": "1.0.1",
  "updatedAt": "2017-11-08T02:01:16.314Z"
}