{
  "contractName": "MetaCoin",
  "abi": [
    {
      "constant": true,
      "inputs": [],
      "name": "getNumberOfPosts",
      "outputs": [
        {
          "name": "",
          "type": "uint256"
        }
      ],
      "payable": false,
      "stateMutability": "view",
      "type": "function"
    },
    {
      "constant": true,
      "inputs": [
        {
          "name": "postID",
          "type": "uint256"
        }
      ],
      "name": "getPost",
      "outputs": [
        {
          "name": "content",
          "type": "string"
        },
        {
          "name": "timestamp",
          "type": "uint256"
        }
      ],
      "payable": false,
      "stateMutability": "view",
      "type": "function"
    },
    {
      "constant": true,
      "inputs": [
        {
          "name": "addr",
          "type": "address"
        }
      ],
      "name": "getBalanceInEth",
      "outputs": [
        {
          "name": "",
          "type": "int256"
        }
      ],
      "payable": false,
      "stateMutability": "view",
      "type": "function"
    },
    {
      "constant": false,
      "inputs": [
        {
          "name": "title",
          "type": "string"
        },
        {
          "name": "content",
          "type": "string"
        }
      ],
      "name": "postQuestion",
      "outputs": [
        {
          "name": "",
          "type": "bool"
        }
      ],
      "payable": false,
      "stateMutability": "nonpayable",
      "type": "function"
    },
    {
      "constant": false,
      "inputs": [
        {
          "name": "receiver",
          "type": "address"
        },
        {
          "name": "amount",
          "type": "int256"
        }
      ],
      "name": "sendCoin",
      "outputs": [
        {
          "name": "",
          "type": "bool"
        }
      ],
      "payable": false,
      "stateMutability": "nonpayable",
      "type": "function"
    },
    {
      "constant": false,
      "inputs": [
        {
          "name": "postId",
          "type": "uint256"
        },
        {
          "name": "answer",
          "type": "string"
        }
      ],
      "name": "postAnswer",
      "outputs": [
        {
          "name": "",
          "type": "bool"
        }
      ],
      "payable": false,
      "stateMutability": "nonpayable",
      "type": "function"
    },
    {
      "constant": false,
      "inputs": [
        {
          "name": "postId",
          "type": "uint256"
        },
        {
          "name": "answerId",
          "type": "uint256"
        }
      ],
      "name": "chooseAnswer",
      "outputs": [
        {
          "name": "",
          "type": "bool"
        }
      ],
      "payable": false,
      "stateMutability": "nonpayable",
      "type": "function"
    },
    {
      "constant": true,
      "inputs": [],
      "name": "getLatestPost",
      "outputs": [
        {
          "name": "content",
          "type": "string"
        },
        {
          "name": "timestamp",
          "type": "uint256"
        },
        {
          "name": "numberOfPosts",
          "type": "uint256"
        }
      ],
      "payable": false,
      "stateMutability": "view",
      "type": "function"
    },
    {
      "constant": true,
      "inputs": [
        {
          "name": "addr",
          "type": "address"
        }
      ],
      "name": "getBalance",
      "outputs": [
        {
          "name": "",
          "type": "int256"
        }
      ],
      "payable": false,
      "stateMutability": "view",
      "type": "function"
    },
    {
      "inputs": [],
      "payable": false,
      "stateMutability": "nonpayable",
      "type": "constructor"
    },
    {
      "anonymous": false,
      "inputs": [
        {
          "indexed": true,
          "name": "_from",
          "type": "address"
        },
        {
          "indexed": true,
          "name": "_to",
          "type": "address"
        },
        {
          "indexed": false,
          "name": "_value",
          "type": "int256"
        }
      ],
      "name": "Transfer",
      "type": "event"
    },
    {
      "anonymous": false,
      "inputs": [
        {
          "indexed": false,
          "name": "id",
          "type": "uint256"
        }
      ],
      "name": "CreatePost",
      "type": "event"
    }
  ],
  "bytecode": "0x6060604052341561000f57600080fd5b600080819055506000600181905550610a938061002d6000396000f300606060405260043610610099576000357c0100000000000000000000000000000000000000000000000000000000900463ffffffff16806337bbcaa01461009e57806340731c24146100c75780637bd703e81461016a5780637f34457c146101b7578063bc9e7d7f1461026f578063c921d66c146102c9578063dcfb512114610347578063e04e6d541461038b578063f8b2cb4f14610427575b600080fd5b34156100a957600080fd5b6100b1610474565b6040518082815260200191505060405180910390f35b34156100d257600080fd5b6100e8600480803590602001909190505061047d565b6040518080602001838152602001828103825284818151815260200191508051906020019080838360005b8381101561012e578082015181840152602081019050610113565b50505050905090810190601f16801561015b5780820380516001836020036101000a031916815260200191505b50935050505060405180910390f35b341561017557600080fd5b6101a1600480803573ffffffffffffffffffffffffffffffffffffffff16906020019091905050610556565b6040518082815260200191505060405180910390f35b34156101c257600080fd5b610255600480803590602001908201803590602001908080601f0160208091040260200160405190810160405280939291908181526020018383808284378201915050505050509190803590602001908201803590602001908080601f016020809104026020016040519081016040528093929190818152602001838380828437820191505050505050919050506105fe565b604051808215151515815260200191505060405180910390f35b341561027a57600080fd5b6102af600480803573ffffffffffffffffffffffffffffffffffffffff16906020019091908035906020019091905050610672565b604051808215151515815260200191505060405180910390f35b34156102d457600080fd5b61032d600480803590602001909190803590602001908201803590602001908080601f0160208091040260200160405190810160405280939291908181526020018383808284378201915050505050509190505061077d565b604051808215151515815260200191505060405180910390f35b341561035257600080fd5b6103716004808035906020019091908035906020019091905050610878565b604051808215151515815260200191505060405180910390f35b341561039657600080fd5b61039e610884565b6040518080602001848152602001838152602001828103825285818151815260200191508051906020019080838360005b838110156103ea5780820151818401526020810190506103cf565b50505050905090810190601f1680156104175780820380516001836020036101000a031916815260200191505b5094505050505060405180910390f35b341561043257600080fd5b61045e600480803573ffffffffffffffffffffffffffffffffffffffff16906020019091905050610965565b6040518082815260200191505060405180910390f35b60008054905090565b6104856109ae565b6000600260008481526020019081526020016000206001018054600181600116156101000203166002900480601f0160208091040260200160405190810160405280929190818152602001828054600181600116156101000203166002900480156105315780601f1061050657610100808354040283529160200191610531565b820191906000526020600020905b81548152906001019060200180831161051457829003601f168201915b5050505050915060026000848152602001908152602001600020600201549050915091565b600073__ConvertLib____________________________632d2c1d8061057b84610965565b60026000604051602001526040518363ffffffff167c0100000000000000000000000000000000000000000000000000000000028152600401808381526020018281526020019250505060206040518083038186803b15156105dc57600080fd5b6102c65a03f415156105ed57600080fd5b505050604051805190509050919050565b600060016000808282540192505081905550826002600080548152602001908152602001600020600001908051906020019061063b9291906109c2565b5081600260008054815260200190815260200160002060010190805190602001906106679291906109c2565b506001905092915050565b600081600460003373ffffffffffffffffffffffffffffffffffffffff1673ffffffffffffffffffffffffffffffffffffffff1681526020019081526020016000206000828254039250508190555081600460008573ffffffffffffffffffffffffffffffffffffffff1673ffffffffffffffffffffffffffffffffffffffff168152602001908152602001600020600082825401925050819055508273ffffffffffffffffffffffffffffffffffffffff163373ffffffffffffffffffffffffffffffffffffffff167f8b0c34a52f9e28d78caaa7066cd047b398dae74941a208b77777420f492bd7e1846040518082815260200191505060405180910390a36001905092915050565b60006001546003600060015481526020019081526020016000206001018190555082600360006001548152602001908152602001600020600001819055508160036000600154815260200190815260200160002060020190805190602001906107e79291906109c2565b503360036000600154815260200190815260200160002060030160006101000a81548173ffffffffffffffffffffffffffffffffffffffff021916908373ffffffffffffffffffffffffffffffffffffffff16021790555042600360006001548152602001908152602001600020600401819055506001600081548092919060010191905055506001905092915050565b60006001905092915050565b61088c6109ae565b60008060026000805481526020019081526020016000206001018054600181600116156101000203166002900480601f01602080910402602001604051908101604052809291908181526020018280546001816001161561010002031660029004801561093a5780601f1061090f5761010080835404028352916020019161093a565b820191906000526020600020905b81548152906001019060200180831161091d57829003601f168201915b5050505050925060026000805481526020019081526020016000206002015491506000549050909192565b6000600460008373ffffffffffffffffffffffffffffffffffffffff1673ffffffffffffffffffffffffffffffffffffffff168152602001908152602001600020549050919050565b602060405190810160405280600081525090565b828054600181600116156101000203166002900490600052602060002090601f016020900481019282601f10610a0357805160ff1916838001178555610a31565b82800160010185558215610a31579182015b82811115610a30578251825591602001919060010190610a15565b5b509050610a3e9190610a42565b5090565b610a6491905b80821115610a60576000816000905550600101610a48565b5090565b905600a165627a7a72305820d995bad25634f162b24bebdaf685b67f32229d02cc97292fb10ccd7f7a0555210029",
  "source": "pragma solidity ^0.4.11;\n\nimport \"./ConvertLib.sol\";\n\ncontract MetaCoin {\n  struct Post {\n    string title;\n    string content;\n    uint timestamp;\n  }\n\n  struct Answer {\n    uint postId;\n    uint id;\n    string content;\n    address createdBy;\n    uint timestamp;\n  }\n\n  uint numOfPosts;\n  uint numOfAnswers;\n\n  mapping (uint => Post) posts;\n  mapping (uint => Answer) answers;\n  mapping (address => int) balances;\n\n  event Transfer(address indexed _from, address indexed _to, int256 _value);\n  event CreatePost(uint id);\n\n  function MetaCoin() {\n    numOfPosts = 0;\n    numOfAnswers = 0;\n  }\n\n  function sendCoin(address receiver, int amount) returns (bool) {\n    balances[msg.sender] -= amount;\n    balances[receiver] += amount;\n    Transfer(msg.sender, receiver, amount);\n    return true;\n  }\n\n  function getBalanceInEth(address addr) constant returns (int) {\n    return ConvertLib.convert(getBalance(addr), 2);\n  }\n\n  function getBalance(address addr) public constant returns (int) {\n    return balances[addr];\n  }\n\n  function postQuestion(string title, string content) public returns (bool) {\n    numOfPosts += 1;\n    posts[numOfPosts].title = title;\n    posts[numOfPosts].content = content;\n    return true;\n  }\n\n  function getPost(uint postID) constant public returns (string content, uint timestamp) {\n    content = posts[postID].content;\n    timestamp = posts[postID].timestamp;\n  }\n\n  function getLatestPost() constant public returns (string content, uint timestamp, uint numberOfPosts) {\n    content = posts[numOfPosts].content;\n    timestamp = posts[numOfPosts].timestamp;\n    numberOfPosts = numOfPosts;\n  }\n\n  function getNumberOfPosts() constant public returns (uint) {\n    return numOfPosts;\n  }\n\n  function postAnswer(uint postId, string answer) public returns (bool) {\n    answers[numOfAnswers].id = numOfAnswers;\n    answers[numOfAnswers].postId = postId;\n    answers[numOfAnswers].content = answer;\n    answers[numOfAnswers].createdBy = msg.sender;\n    answers[numOfAnswers].timestamp = now;\n    numOfAnswers++;\n    return true;\n  }\n\n  function chooseAnswer(uint postId, uint answerId) public returns (bool) {\n    return true;\n  }\n}\n",
  "sourcePath": "/Users/sunjinlee/workspace/eth/my-little-ponies/contracts/MetaCoin.sol",
  "compiler": {
    "name": "solc",
    "version": "0.4.18+commit.9cf6e910.Emscripten.clang"
  },
  "schemaVersion": "1.0.1",
  "updatedAt": "2017-11-07T10:33:58.462Z"
}